:100000000A128A11FC2F00308A000408840A820731
:100010000034053400340034003405340034013435
:10002000013405340034023402340534003403341E
:100030000334053400340434043405340034053406
:1000400005340734003403340634073400340434F0
:1000500007340634003400340834063400340134E4
:1000600009340634003402340A34063400340334CC
:100070000B340634003404340C34063400340534B4
:100080000D340634003406340E340634003407349C
:100090000F34083400340034103408340034013490
:1000A0001134083400340234123408340034033478
:1000B0001334083400340434143408340034053460
:1000C0001534083400340634163408340034073448
:1000D00017343E347D3400343A34763400343734C7
:1000E0006F340034343469340034313463340034D0
:1000F0002E345E3400342B345934003428345434D4
:10010000003426344F34003424344A34003422344A
:10011000463400342034423400341E343F3400343A
:100120001C343B3400341B34383400341934353437
:10013000003418343234003416342F34003415347B
:100140002C34003414342A3400341334273400346B
:100150001234253400341134233400341034213463
:02016000003469
:100D4C00F200F101721CAB2EAC2EAE2E7008F10726
:100D5C000310F00D0310F20C7208031DB62EB72E03
:100D6C00A82E7108080083160317880189018312C5
:100D7C0003138501860187018801FF308316031355
:100D8C008500FF308600FF30880007118715071695
:100D9C0004308312031392000800730A031DDA2E29
:100DAC00740A031DDA2EDB2EDF2E83120313970138
:100DBC002E2F0330F00073080A128A11A6260A128D
:100DCC008A11613E84000A128A1103200A128A11C8
:100DDC008316031392000330F00073080A128A1171
:100DEC00A6260A128A11623E84000A128A11032076
:100DFC000A128A11F5000A128A1103200A128A11AA
:100E0C00F6000310F60CF50C0310F60CF50C750837
:100E1C008312031395000330F00073080A128A1131
:100E2C00A6260A128A11623E84000A128A11032035
:100E3C000A128A110339F500F50E831203131708F1
:100E4C007506CF39750697001708F0390C389700DE
:100E5C0008000A128A11B9260A128A11FF3083126D
:100E6C000313A000FF30A100A201A30183120313FE
:100E7C002208F70001300310F70DFF3E031D412F30
:100E8C000310770D013E84000A128A1103200A1206
:100E9C008A11F8000A128A1103200A128A11F90029
:100EAC00780884008317791C83130008FA0001303A
:100EBC00FB002208FC0001300310FC0DFF3E031D5B
:100ECC00622F03107C0D033E84000A128A1103204A
:100EDC000A128A11013E742F0310FB0DFF3E031DF5
:100EEC00722F7B087A0503197C2F7D2FDA2F0D309A
:100EFC00F700F70B7F2F831203132208F700013042
:100F0C000310F70DFF3E031D862F0310770D013ED6
:100F1C0084000A128A1103200A128A11F8000A129C
:100F2C008A1103200A128A11F900780884008317A9
:100F3C00791C83130008FA000130FB002208FC0026
:100F4C0001300310FC0DFF3E031DA72F03107C0D79
:100F5C00033E84000A128A1103200A128A11013EF0
:100F6C00B92F0310FB0DFF3E031DB72F7B087A052D
:100F7C000319C12FC22FDA2F2208F70001300310FA
:100F8C00F70DFF3E031DC52F0310770D043E8400A3
:100F9C000A128A1103200A128A11F800F901780842
:100FAC00A0007908A100ED2F0130A2070318A30AB5
:100FBC000030A3072308803AFF0080307F02031D16
:100FCC00E92F18302202031CEC2FED2F3C2F83123B
:100FDC0003132108F4002008F3000A128A11D32607
:100FEC000A128A11342F0A128A11002883010A125C
:040FFC008A112F2FF8
:02400E00E02CA4
:00000001FF
